:100000000C945A000C9443071895000018950000B2
:10001000189500001895000018950000189500002C
:10002000189500001895000018950000189500001C
:10003000189500001895000018950000189500000C
:1000400018950000189500000C94030A18950000FC
:1000500018950000189500001895000018950000EC
:1000600018950000189500001895000018950000DC
:100070000C94310A1895000018950000189500009E
:1000800018950000189500001895000018950000BC
:1000900018950000189500001895000018950000AC
:1000A000189500001895000018950000189500009C
:1000B000189500008FEF8DBFC6E0EAE24E2E88E073
:1000C0008EBFD8E0F6E05F2EA89584B7082E877F14
:1000D00084BF88E199278093600090936000EEEFE1
:1000E000F7E0A0E0B1E088278D933197E9F783E04E
:1000F0008093C40080E08093C50088E18093C100B4
:1001000066240E94EA08259A2D986A9A72983A9A6B
:1001100042986B9A7398569A579A209A219A5E9AA7
:10012000299887E880937A0080EC80937C0086E1B0
:10013000D2018C9381E00E9493098DE1D2018C93CE
:1001400081E00E9493098AE0D2018C9381E00E94B1
:1001500093090E947F05269683E00E948F0983E021
:100160008093C40080E08093C50088E18093C10043
:1001700086E08093C20089E18093CC0080E0809388
:10018000CD0086E08093CA0088E18093C900709119
:10019000C10070687093C1007091C900706870935D
:1001A000C900E2ECF6E10E9461080E94680880E460
:1001B0008093000180EC8093010180910001D201C5
:1001C0008C9381E00E94930981E3D2018C9381E0BA
:1001D0000E9493090E946A04249682E00E948F097B
:1001E0008AE0D2018C9381E00E9493090E94F4047A
:1001F000229681E00E948F098FE8D2018C9381E0E2
:100200000E9493090E94F404229681E00E948F09C3
:1002100087E0D2018C9381E00E9493090E94290516
:10022000229681E00E948F090E94340670917A0024
:10023000706870937A00809169008C7F82608093EF
:1002400069007894E89A0E941508082F013011F08F
:100250000C943B018FE090E00E94DB08A9EFB2E034
:10026000BA93AA930E945B062296A5E6B1E00E948B
:100270005B080E946808AFE5B3E08C9187FB16F03D
:100280000C94E90170915F037F7770935F03E9EF4E
:10029000F2E09FE20AE037E0AEE2B4E00E943A0BFF
:1002A000ABE7B4E02C93AEE2B4E00E945B080E949E
:1002B0006808A9E3B4E00E945B080E946808A4E40F
:1002C000B4E00E945B080E946808AFE4B4E00E94BA
:1002D0005B080E946808AAE5B4E00E945B080E94DF
:1002E0006808A5E6B4E00E945B080E946808AFE4D5
:1002F000B4E0E6ECF6E10E941E0B11F00C949401C0
:1003000088E0D2018C9381E00E94930980E0D201C1
:100310008C9381E00E9493090E946703249682E0F7
:100320000E948F090C94A60180E0D2018C9381E099
:100330000E94930980E0D2018C9381E00E9493098E
:100340000E946703249682E00E948F098EE290E269
:10035000AAE5B4E00E949909AAE5B4E00E94180B4E
:10036000082F053010F00C94D9018CE00E949309FD
:10037000EAE5F4E0A881B9810E94F30AAAE5B4E0B5
:10038000E8ECF6E10E94A209E881F981AAE5B4E06F
:100390000E94F7070E94F30A8CE0481A80E0580A8E
:1003A0002296AAE5B4E00E94180B082F053008F445
:1003B000DCCFE4E4F4E0ACE5B1E00E94F30A0E9493
:1003C000490983E080937C0470915F0370627093AD
:1003D0005F03AFE5B3E08C9185FB16F40C94A302A8
:1003E00000917C04003011F40C940A0280E8D201E0
:1003F0008C9381E00E94930980E0D2018C9381E08C
:100400000E9493090E944303249682E00E948F0970
:100410000C941C0280E0D2018C9381E00E9493092D
:1004200080E0D2018C9381E00E9493090E944303F3
:10043000249682E00E948F0900917C00007F056075
:1004400000937C000E94A809A6E4B1E08D939C93E0
:10045000A6E4B1E00D911C91003050E0150711F0B9
:100460000C94400281E0D2018C9381E00E949309B8
:100470000E942905229681E00E948F090C944C026B
:1004800087E0D2018C9381E00E9493090E942905A4
:10049000229681E00E948F09ADE8B4E00E945B08DB
:1004A0000E946808EAE5F4E0AFE7B4E00E94F30ACE
:1004B000EFE7F4E0AFE7B4E00E94D2090E943E0902
:1004C000ECE5F1E0ADE8B4E00E94F30A81E0EDE88C
:1004D000F4E002E00A93A5E8B4E00E94F80A84E0A0
:1004E000EDE8F4E002E00A93A5E8B4E00E94F70723
:1004F0000E94F80A87E0EDE8F4E002E00A93A5E83C
:10050000B4E00E94F7070E94F80AAFE7B4E0BA939C
:10051000AA930E948B032296ADE8B4E0BA93AA9303
:100520000E94F2032296ADE4B1E0BA93AA93AEE43E
:10053000B1E0BA93AA930E944604249670915F0397
:10054000706270935F0300918C04003018F011F01A
:100550000C94AC020C94B30280918C048150809373
:100560008C040C94C402AFE5B3E08C9186FB16F0CA
:100570000C94C40270915F037F7B70935F03709152
:100580005F037F7D70935F038AE090E00E94DB0849
:100590000C9423010E948908AEE5B3E08C9300918E
:1005A0005E03003218F011F00C94D8020C94E202B1
:1005B000AEE5B3E08C91AFE2B2E00E94F7078D9315
:1005C00088278C9300915E030A3011F00C94F70297
:1005D000EFE2F2E0A9EFB2E00E94F30AAFE2B2E08C
:1005E00088278C9370915F03706870935F03089500
:1005F000A881B9810C91013010F40C9403038FEFA2
:10060000A881B9818C9380E480930001AA81BB8189
:100610008C9180930101A881B9818C918093020112
:1006200080910001D2018C9381E00E94930983E0C4
:10063000D2018C9381E00E9493090E946A0424965F
:1006400082E00E948F09089580E48093000188ED84
:1006500080930101A881B9818C91809302018091DE
:100660000001D2018C9381E00E94930983E0D201C2
:100670008C9381E00E9493090E946A04249682E090
:100680000E948F09089580E4809300018EED80938D
:100690000101AA81BB818C9180930201A881B9815B
:1006A0008C918093030180910001D2018C9381E0B1
:1006B0000E94930984E0D2018C9381E00E94930907
:1006C0000E946A04249682E00E948F09089580E4C3
:1006D0008093000189ED80930101AA81BB818C91F7
:1006E00080930201A881B9818C918093030180914C
:1006F0000001D2018C9381E00E94930984E0D20131
:100700008C9381E00E9493090E946A04249682E0FF
:100710000E948F09089581E080937E0400917E04F9
:10072000053018F011F00C94F103AEE7B4E0AD9091
:10073000BB24AEE7B4E0AA0DBB1D0C91003211F052
:100740000C94A7038AE080937D040C94B503AEE774
:10075000B4E0AD90BB24AEE7B4E0AA0DBB1D0C9194
:1007600040E3041BADE7B4E00C9380E48093000108
:10077000E0E3FFE0AEE7B4E08C919927A1E0B1E0BF
:100780000E94CF09E6E4FFE0ADE7B4E08C91992741
:10079000A2E0B1E00E94CF09E2E7FFE0ADE7B4E0FC
:1007A0008C919927A3E0B1E00E94CF0980910001CC
:1007B000D2018C9381E00E94930984E0D2018C9352
:1007C00081E00E9493090E946A04249682E00E94BC
:1007D0008F09AEE7B4E08C918F5F8C9310F40C948A
:1007E0008E03089581E080937E0400917E0406309C
:1007F00018F011F00C944504AEE7B4E0AD90BB24C2
:10080000A4E8B4E0AA0DBB1D0C9140E3041BADE7C6
:10081000B4E00C9380E480930001E8E2FFE0AEE7EF
:10082000B4E08C919927A1E0B1E00E94CF09ECE3FC
:10083000FFE0ADE7B4E08C919927A2E0B1E00E941F
:10084000CF09AFE5B3E08C9186FBA2E0B1E08C91DB
:1008500087F98C9380910001D2018C9381E00E94F2
:10086000930983E0D2018C9381E00E9493090E9456
:100870006A04249682E00E948F09AEE7B4E08C916E
:100880008F5F8C9310F40C94F503089580E48093AB
:1008900000018BED80930101AA81BB818C91809333
:1008A0000201A881B9818C9180930301809100019C
:1008B000D2018C9381E00E94930984E0D2018C9351
:1008C00081E00E9493090E946A04249682E00E94BB
:1008D0008F09089581E00E94930981E00E949309A5
:1008E000299A80E0AA81BB818C93AA81BB810C915B
:1008F000073018F011F00C949A04289AAA81BB8151
:100900008C91A0E0B1E00E94E8090E94DE090C9001
:100910000822689409F4E894ABE2B0E08C9187F97E
:100920008C932898AA81BB818C918F5F8C9310F453
:100930000C94750429980000AC81BD810C910130A4
:1009400018F011F00C94A6040C94EE04299A82E09D
:10095000A881B9818C93AC81BD814C91A881B9816A
:100960000C91041718F011F00C94ED0480E0AA81AA
:10097000BB818C93AA81BB810C91073018F011F0D8
:100980000C94E504289AAA81BB818C91A881B98135
:10099000AD90BB24AFEFB0E0AA0DBB1D0E94E809EB
:1009A0000E94DE090C900822689409F4E894ABE2F6
:1009B000B0E08C9187F98C932898AA81BB818C91A7
:1009C0008F5F8C9310F40C94BA04A881B9818C9138
:1009D0008F5F8C9310F40C94AB04299882E0481A32
:1009E00080E0580A2496089581E00E949309299A8C
:1009F00080E0A881B9818C93A881B9810C910730DE
:100A000018F011F00C942105289AA881B9818C91D5
:100A1000AA81BB810E94E8090E94DE090C9008228D
:100A2000689409F4E894ABE2B0E08C9187F98C9378
:100A30002898A881B9818C918F5F8C9310F40C94C5
:100A4000FC042998000081E0481A80E0580A2296A8
:100A5000089581E00E94930908E8AA81BB814C9126
:100A6000040FA881B9810C93A881B9818C91D2011E
:100A70008C9381E00E9493090E94F404229681E005
:100A80000E948F0981E0481A80E0580A2296089552
:100A90000E94EF0814E60E94040910E00E94040975
:100AA0000E94EF0815E60E9404090E942309A8810C
:100AB000B9811C930E942309AA81BB811C930E94C7
:100AC0002109AC81BD811C930E94FB08A881B981DA
:100AD0009C910E94CB08A881B9818C93AA81BB818B
:100AE0009C910E94CB08AA81BB818C93AC81BD8173
:100AF0009C910E94CB08AC81BD818C930895A88104
:100B0000B9818C910E94C408A881B9818C93AA8173
:100B1000BB818C910E94C408AA81BB818C93AC815B
:100B2000BD818C910E94C408AC81BD818C930E94D0
:100B3000EF0814E60E94040910E00E940409A8814D
:100B4000B9811C910E940409AA81BB811C910E9459
:100B50000409AC81BD811C910E9404090E94FB081C
:100B600008950E94EF0814E60E94040913E00E9411
:100B700004090E94EF0815E60E9404090E94230957
:100B8000AE81BF811C930E942309AC81BD811C935F
:100B90000E942309AA81BB811C930E942109A8817C
:100BA000B9811C930E94FB08AE81BF819C910E9479
:100BB000CB08AE81BF818C93AC81BD819C910E949A
:100BC000CB08AC81BD818C93AA81BB819C910E9492
:100BD000CB08AA81BB818C93A881B9819C910E948A
:100BE000CB08A881B9818C930895AE81BF818C9187
:100BF0000E94C408AE81BF818C93AC81BD818C9171
:100C00000E94C408AC81BD818C93AA81BB818C9168
:100C10000E94C408AA81BB818C93A881B9818C9160
:100C20000E94C408A881B9818C930E94EF0814E641
:100C30000E94040913E00E940409AE81BF811C9147
:100C40000E940409AC81BD811C910E940409AA8103
:100C5000BB811C910E940409A881B9811C910E944A
:100C600004090E94FB08089514E60E9404091BE091
:100C70000E94040910E40E94040910E00E94040983
:100C80000E94FB0814E60E9404091DE00E9404096A
:100C900011E10E9404090E94FB080E94EF0814E67B
:100CA0000E9404091FE00E94040910E30E94040945
:100CB0000E94FB08089500EA16E821E030E0AEE962
:100CC000B4E00D931D932D933C930E94350BA5E644
:100CD000B1E0E4E60E9400080E94320B089500EAA9
:100CE00016E821E030E0AEE9B4E00D931D932D93BA
:100CF0003C930E94350BAFE2B2E0E4E60E94740838
:100D00000E94320B089580E08093A304EAECF6E1A0
:100D10000E9461080E94680880E08093A20400910C
:100D2000A2040E3F18F011F00C94D5060E94EF08B3
:100D30001091A2040E94040962FA16F40C94CB06E6
:100D4000E6EDF6E10E946108E2EAF4E0A2E1B6E035
:100D50000E94810A0E945908E2EEF6E10E946108B1
:100D6000E2EAF4E0A2E1B6E00E94C70A0E94590854
:100D7000EAEEF6E10E946108D201E2EAF4E00E94A4
:100D8000E00AD2010E945B080E946808A3EAB4E06E
:100D90008C918F5F8C930E94FB08A2EAB4E08C9147
:100DA0008E5F8C9310F40C948F06E2EFF6E10E94B4
:100DB00061080E9468088091A304A881B9818C937E
:100DC000089580914F01D2018C9381E00E94930994
:100DD00080914E01D2018C9381E00E949309809111
:100DE0004D01D2018C9381E00E9493090E947F05FE
:100DF000269683E00E948F090895AFE4B1E0BA938C
:100E0000AA93AEE4B1E0BA93AA93ADE4B1E0BA9389
:100E1000AA930E9448052696A8E4B1E0BA93AA9343
:100E2000A0E5B1E0BA93AA93A1E5B1E0BA93AA9381
:100E3000A2E5B1E0BA93AA930E94B105289608955D
:100E400080914801D2018C9381E00E9493098091A6
:100E50005001D2018C9381E00E949309809151014D
:100E6000D2018C9381E00E94930980915201D201BA
:100E70008C9381E00E9493090E94F505289684E0F6
:100E80000E948F0908950F921F922F923F924F92C6
:100E90005F927F92AF92BF920F931F932F933F93D6
:100EA0004F935F936F937F938F939F93AF93BF9372
:100EB000CF93DF93EF93FF938FB78F9300917C04D1
:100EC000003011F40C94690780917C048150809368
:100ED0007C0482E380938C0470915F037064709350
:100EE0005F0370915F037F7D70935F038F918FBF6E
:100EF000FF91EF91DF91CF91BF91AF919F918F9132
:100F00007F916F915F914F913F912F911F910F9121
:100F1000BF90AF907F905F904F903F902F901F9029
:100F20000F901895F894FFCF00CFD5D6D2D3D0002C
:100F300000CCC9C6C3C0CFD5D6D2D3D077126B5B95
:100F40001E5D7D137F1F3118D1D1F0E1E111F1F168
:100F500000000000000000F1D52195A1A1E1F0847E
:100F600010A820BAB231F1B1F1E18530A8B08A8A77
:100F70008900460245420343470247430000000000
:100F80000000000752445245054607104625440616
:100F900026460566254310460C2E28104800CDC471
:100FA00000CFCD00C25400D1D000D7D200CFD200A4
:100FB000D1C100CDC4005355004D4F0054550057CA
:100FC00045005448004652005341005355005355C4
:100FD0004E004D4F4E00545545005745440054486F
:100FE0005500465249005341540053554E008F93CB
:100FF0008D918823E9F711978F910895A2E1B6E0CA
:101000001AD0803079F08D3039F0EE23C9F38D930A
:10101000EA9563FE60D0F4CF63FC04C08DE05BD042
:101020008AE059D088278C9308958091C60388233D
:1010300009F081E008950F929F93AF93BF937F9340
:101040000F931F932F933F93AEE9B4E00D911D9141
:101050002D913C918827802B812B822B832BF1F0C3
:1010600001501040204030408091C603882391F306
:10107000F8948091C6038A958093C6039091C40327
:10108000A0E6B3E0A90F0024B01D8C91939594368F
:1010900009F499279093C403789401C088273F915D
:1010A0002F911F910F917F91BF91AF919F910F90C1
:1010B0000895A2E1B6E08D91882311F00CD0FBCF0A
:1010C00008950E94BF09802D11F005D0FACF089530
:1010D0008DE001D08AE00090C00005FEFCCF809337
:1010E000C6000895A2E1B6E019D0803079F08D30C5
:1010F00039F0EE23C9F38D93EA9563FE33D0F4CF34
:1011000063FC04C08DE02ED08AE02CD088278C931D
:10111000089580912D04882309F408957F930F92F8
:101120009F93AF93BF9380912D048823E1F3F894AC
:1011300080912D048A9580932D0490912B04A7EC27
:10114000B3E0A90F0024B01D8C919395943609F457
:10115000992790932B047894BF91AF919F910F9012
:101160007F9108950090C80005FEFCCF8093CE00CB
:101170000895982F82958F70805D8D939F70905DFC
:101180009D9388278C9308954AE0082F0E94080BAE
:101190000295802B0895892F8F70905110F0865FF3
:1011A000FCCF08953197F1F70895689462F8089597
:1011B000E89462F80895EF93FF93EE27E82BE92B6C
:1011C00031F0E0EAFFE03197F1F70197D1F7FF91B5
:1011D000EF91089568986998709871980895699A40
:1011E000689803D0699801D0689AEF93E8E0EA958F
:1011F000F1F7EF910895699A689AF7DF6998619B12
:10120000FECFF3DF6898F1CF0894111F01C0110FD2
:1012100069F0699A18F40000689802C0689A00C0E2
:10122000E4DF6998619BFECFE0DFF1CF699A6898AF
:10123000DCDF6998619BFECFE8946099689462F85E
:10124000D4CF089401C08894331F11E0699A68983C
:10125000CCDF6998619BFECFC8DF889460990894C1
:10126000111FA0F7699A379510F4689801C0689A21
:10127000BCDF6998619BFECFB8DF08950E94FD0630
:10128000A3E5B1E0E0E5F1E00E94770933970C9423
:101290006509ECE5F1E0ADE4B1E00E9453090C947E
:1012A000E106ADE0BB27868197810E94F9090D9385
:1012B000838194810E94F9090D93808191810E941C
:1012C000F9090D930895EDE0FF2782810E94EE0950
:1012D0008AE38D9381810E94EE098AE38D93808158
:1012E0000E94EE0988278C930895EDE0FF27808106
:1012F0000E94EE098EE28D9381810E94EE098EE2BA
:101300008D9382810E94EE0988278D930895019123
:101310001191219130810895481A590A0895481A67
:101320008827580A089599275A924A92480E591EBA
:1013300008950D91003029F00817D9F79E93119662
:10134000F8CF08950E94BF090D920020D9F70895A3
:1013500070917A00706470937A0000907A0006FCB5
:10136000FCCF70917A00706470937A0000907A00DC
:1013700006FCFCCF80917800909179000895C89583
:1013800031960020089591E005C092E003C094E0FA
:1013900001C098E0F4DF0D929A95E1F70895E80F07
:1013A000F91FF1CF819104D08D938823D9F7089547
:1013B000813618F08B3708F48F7D089591E08823EB
:1013C00021F08894991F8A95E9F7892F90950895BF
:1013D000883018F011968850FBCF089500278A3086
:1013E00018F08A500395FBCF005D0D93805D8D93BF
:1013F0000895805390530027813018F0065F8A9536
:10140000FBCF090F08957F930F93AF93BF938F93F3
:101410009F938FB78F938091C60304E6081B29F42E
:101420009091C6000E94D50813C00091C503A0E6A4
:10143000B3E077279091C600A00FB71F9C938395C8
:101440008093C6030395043609F400270093C5036F
:101450008F918FBF9F918F91BF91AF910F917F918E
:1014600018957F930F93AF93BF938F939F938FB7ED
:101470008F93E89480912D0404E6081B29F4909141
:10148000CE000E94D50814C000912C04A7ECB3E054
:1014900077279091CE00A00FB71F9C9368948395F7
:1014A00080932D040395043609F4002700932C043F
:1014B0000E94CA028F918FBF9F918F91BF91AF9170
:1014C0000F917F911895000F111F221F331F089550
:1014D00000951095209530950F5F1F4F2F4F3F4F70
:1014E0000895019110810FC00E9487090EC00E94CB
:1014F000870910C00191108117FF05C03FEF2FEF42
:1015000004C0008111272227332737FF03C0E0DF03
:101510008DE28D93CF92DF92EF92AA24BB24CC244C
:10152000DD24EE2440E2EAE0FF2755E093E38081EA
:10153000890F87FD9F7083FD907F891B81935A954A
:10154000A9F7C1DFAA1CBB1CCC1CDD1CEE1C4A95F4
:1015500051F7E894EFE0FF2782910CD0EB30E0F7F1
:101560001EF068948A2D0AD088278D93EF90DF9023
:10157000CF900895982F829501D0892F8F70805D2C
:1015800026F0803309F4089568948D93089541E01E
:1015900003C042E001C044E0E40F8827F81F8291B5
:1015A000982F829506D0892F04D04A95C1F70C94C4
:1015B000F00A8F708A3008F0895F805D8D930895FE
:1015C00041E0E40F8827F81F829138E098E1880F06
:1015D000991F9D933A95D1F74A95B1F70C94F00A6B
:1015E00088278D93089581918D938823E1F708953D
:1015F00009919191992359F08A95D9F73197002350
:1016000031F081918D930A958823C9F70895E8CF29
:10161000FF93881BF9E0001FFA9511F4FF910895DC
:10162000881F841B18F4840F8894F5CF0894F3CF97
:101630008FEF83959D919923E1F70895689401C0F8
:10164000E894AF93BF938D9116F0919103C00E94DF
:10165000BF09902D891718F011F48823A1F7BF91C5
:10166000AF910895E89463F80895689463F8089535
:10167000689401C0E8942227102F231709F40895D5
:1016800026F40E94BF09802D01C08191803081F035
:10169000891741F070E08D931A9591F7239571E0C9
:1016A0001D93EACF01D0E8CF703011F0772708956D
:1016B000772331F42395882713958D931A95E9F7AD
:1016C000089552554E00310020005363616E20731F
:1016D000746172740000536C617665206174203A05
:1016E000200020686578203A20002062696E203A48
:0C16F0002000456E64205363616E000012
:00000001FF
